{
  "_format": "hh-sol-artifact-1",
  "contractName": "EmojiFaces",
  "sourceName": "contracts/MapleFaces.sol",
  "abi": [
    {
      "inputs": [],
      "stateMutability": "nonpayable",
      "type": "constructor"
    },
    {
      "anonymous": false,
      "inputs": [
        {
          "indexed": true,
          "internalType": "address",
          "name": "owner",
          "type": "address"
        },
        {
          "indexed": true,
          "internalType": "address",
          "name": "approved",
          "type": "address"
        },
        {
          "indexed": true,
          "internalType": "uint256",
          "name": "tokenId",
          "type": "uint256"
        }
      ],
      "name": "Approval",
      "type": "event"
    },
    {
      "anonymous": false,
      "inputs": [
        {
          "indexed": true,
          "internalType": "address",
          "name": "owner",
          "type": "address"
        },
        {
          "indexed": true,
          "internalType": "address",
          "name": "operator",
          "type": "address"
        },
        {
          "indexed": false,
          "internalType": "bool",
          "name": "approved",
          "type": "bool"
        }
      ],
      "name": "ApprovalForAll",
      "type": "event"
    },
    {
      "anonymous": false,
      "inputs": [
        {
          "indexed": false,
          "internalType": "uint256",
          "name": "tokenId",
          "type": "uint256"
        },
        {
          "indexed": false,
          "internalType": "address",
          "name": "owner",
          "type": "address"
        }
      ],
      "name": "EmojiMinted",
      "type": "event"
    },
    {
      "anonymous": false,
      "inputs": [
        {
          "indexed": true,
          "internalType": "address",
          "name": "previousOwner",
          "type": "address"
        },
        {
          "indexed": true,
          "internalType": "address",
          "name": "newOwner",
          "type": "address"
        }
      ],
      "name": "OwnershipTransferred",
      "type": "event"
    },
    {
      "anonymous": false,
      "inputs": [
        {
          "indexed": true,
          "internalType": "address",
          "name": "from",
          "type": "address"
        },
        {
          "indexed": true,
          "internalType": "address",
          "name": "to",
          "type": "address"
        },
        {
          "indexed": true,
          "internalType": "uint256",
          "name": "tokenId",
          "type": "uint256"
        }
      ],
      "name": "Transfer",
      "type": "event"
    },
    {
      "inputs": [],
      "name": "MAX_TOKENS",
      "outputs": [
        {
          "internalType": "uint256",
          "name": "",
          "type": "uint256"
        }
      ],
      "stateMutability": "view",
      "type": "function"
    },
    {
      "inputs": [
        {
          "internalType": "address[]",
          "name": "addresses",
          "type": "address[]"
        }
      ],
      "name": "addToPresaleList",
      "outputs": [],
      "stateMutability": "nonpayable",
      "type": "function"
    },
    {
      "inputs": [
        {
          "internalType": "address",
          "name": "to",
          "type": "address"
        },
        {
          "internalType": "uint256",
          "name": "tokenId",
          "type": "uint256"
        }
      ],
      "name": "approve",
      "outputs": [],
      "stateMutability": "nonpayable",
      "type": "function"
    },
    {
      "inputs": [
        {
          "internalType": "address",
          "name": "owner",
          "type": "address"
        }
      ],
      "name": "balanceOf",
      "outputs": [
        {
          "internalType": "uint256",
          "name": "",
          "type": "uint256"
        }
      ],
      "stateMutability": "view",
      "type": "function"
    },
    {
      "inputs": [],
      "name": "baseURI",
      "outputs": [
        {
          "internalType": "string",
          "name": "",
          "type": "string"
        }
      ],
      "stateMutability": "view",
      "type": "function"
    },
    {
      "inputs": [],
      "name": "devReserve",
      "outputs": [
        {
          "internalType": "uint256",
          "name": "",
          "type": "uint256"
        }
      ],
      "stateMutability": "view",
      "type": "function"
    },
    {
      "inputs": [
        {
          "internalType": "uint256",
          "name": "tokenId",
          "type": "uint256"
        }
      ],
      "name": "getApproved",
      "outputs": [
        {
          "internalType": "address",
          "name": "",
          "type": "address"
        }
      ],
      "stateMutability": "view",
      "type": "function"
    },
    {
      "inputs": [
        {
          "internalType": "address",
          "name": "owner",
          "type": "address"
        },
        {
          "internalType": "address",
          "name": "operator",
          "type": "address"
        }
      ],
      "name": "isApprovedForAll",
      "outputs": [
        {
          "internalType": "bool",
          "name": "",
          "type": "bool"
        }
      ],
      "stateMutability": "view",
      "type": "function"
    },
    {
      "inputs": [],
      "name": "isRevealed",
      "outputs": [
        {
          "internalType": "bool",
          "name": "",
          "type": "bool"
        }
      ],
      "stateMutability": "view",
      "type": "function"
    },
    {
      "inputs": [],
      "name": "maxTokenPurchase",
      "outputs": [
        {
          "internalType": "uint256",
          "name": "",
          "type": "uint256"
        }
      ],
      "stateMutability": "view",
      "type": "function"
    },
    {
      "inputs": [
        {
          "internalType": "uint256",
          "name": "numberOfTokens",
          "type": "uint256"
        }
      ],
      "name": "mintEmoji",
      "outputs": [],
      "stateMutability": "payable",
      "type": "function"
    },
    {
      "inputs": [],
      "name": "name",
      "outputs": [
        {
          "internalType": "string",
          "name": "",
          "type": "string"
        }
      ],
      "stateMutability": "view",
      "type": "function"
    },
    {
      "inputs": [
        {
          "internalType": "address",
          "name": "addr",
          "type": "address"
        }
      ],
      "name": "onPreSaleList",
      "outputs": [
        {
          "internalType": "bool",
          "name": "",
          "type": "bool"
        }
      ],
      "stateMutability": "view",
      "type": "function"
    },
    {
      "inputs": [],
      "name": "owner",
      "outputs": [
        {
          "internalType": "address",
          "name": "",
          "type": "address"
        }
      ],
      "stateMutability": "view",
      "type": "function"
    },
    {
      "inputs": [
        {
          "internalType": "uint256",
          "name": "tokenId",
          "type": "uint256"
        }
      ],
      "name": "ownerOf",
      "outputs": [
        {
          "internalType": "address",
          "name": "",
          "type": "address"
        }
      ],
      "stateMutability": "view",
      "type": "function"
    },
    {
      "inputs": [
        {
          "internalType": "uint256",
          "name": "numberOfTokens",
          "type": "uint256"
        }
      ],
      "name": "presaleEmoji",
      "outputs": [],
      "stateMutability": "payable",
      "type": "function"
    },
    {
      "inputs": [],
      "name": "presaleIsActive",
      "outputs": [
        {
          "internalType": "bool",
          "name": "",
          "type": "bool"
        }
      ],
      "stateMutability": "view",
      "type": "function"
    },
    {
      "inputs": [],
      "name": "presaleMaxMint",
      "outputs": [
        {
          "internalType": "uint256",
          "name": "",
          "type": "uint256"
        }
      ],
      "stateMutability": "view",
      "type": "function"
    },
    {
      "inputs": [
        {
          "internalType": "address[]",
          "name": "addresses",
          "type": "address[]"
        }
      ],
      "name": "removeFromPresaleList",
      "outputs": [],
      "stateMutability": "nonpayable",
      "type": "function"
    },
    {
      "inputs": [],
      "name": "renounceOwnership",
      "outputs": [],
      "stateMutability": "nonpayable",
      "type": "function"
    },
    {
      "inputs": [
        {
          "internalType": "address",
          "name": "_to",
          "type": "address"
        },
        {
          "internalType": "uint256",
          "name": "_reserveAmount",
          "type": "uint256"
        }
      ],
      "name": "reserveTokens",
      "outputs": [],
      "stateMutability": "nonpayable",
      "type": "function"
    },
    {
      "inputs": [],
      "name": "reveal",
      "outputs": [],
      "stateMutability": "nonpayable",
      "type": "function"
    },
    {
      "inputs": [
        {
          "internalType": "address",
          "name": "from",
          "type": "address"
        },
        {
          "internalType": "address",
          "name": "to",
          "type": "address"
        },
        {
          "internalType": "uint256",
          "name": "tokenId",
          "type": "uint256"
        }
      ],
      "name": "safeTransferFrom",
      "outputs": [],
      "stateMutability": "nonpayable",
      "type": "function"
    },
    {
      "inputs": [
        {
          "internalType": "address",
          "name": "from",
          "type": "address"
        },
        {
          "internalType": "address",
          "name": "to",
          "type": "address"
        },
        {
          "internalType": "uint256",
          "name": "tokenId",
          "type": "uint256"
        },
        {
          "internalType": "bytes",
          "name": "_data",
          "type": "bytes"
        }
      ],
      "name": "safeTransferFrom",
      "outputs": [],
      "stateMutability": "nonpayable",
      "type": "function"
    },
    {
      "inputs": [],
      "name": "saleIsActive",
      "outputs": [
        {
          "internalType": "bool",
          "name": "",
          "type": "bool"
        }
      ],
      "stateMutability": "view",
      "type": "function"
    },
    {
      "inputs": [
        {
          "internalType": "address",
          "name": "operator",
          "type": "address"
        },
        {
          "internalType": "bool",
          "name": "approved",
          "type": "bool"
        }
      ],
      "name": "setApprovalForAll",
      "outputs": [],
      "stateMutability": "nonpayable",
      "type": "function"
    },
    {
      "inputs": [
        {
          "internalType": "string",
          "name": "_newBaseURI",
          "type": "string"
        }
      ],
      "name": "setBaseURI",
      "outputs": [],
      "stateMutability": "nonpayable",
      "type": "function"
    },
    {
      "inputs": [
        {
          "internalType": "uint256",
          "name": "maxMint",
          "type": "uint256"
        }
      ],
      "name": "setPresaleMaxMint",
      "outputs": [],
      "stateMutability": "nonpayable",
      "type": "function"
    },
    {
      "inputs": [
        {
          "internalType": "bytes4",
          "name": "interfaceId",
          "type": "bytes4"
        }
      ],
      "name": "supportsInterface",
      "outputs": [
        {
          "internalType": "bool",
          "name": "",
          "type": "bool"
        }
      ],
      "stateMutability": "view",
      "type": "function"
    },
    {
      "inputs": [],
      "name": "symbol",
      "outputs": [
        {
          "internalType": "string",
          "name": "",
          "type": "string"
        }
      ],
      "stateMutability": "view",
      "type": "function"
    },
    {
      "inputs": [],
      "name": "togglePresaleState",
      "outputs": [],
      "stateMutability": "nonpayable",
      "type": "function"
    },
    {
      "inputs": [],
      "name": "toggleSaleState",
      "outputs": [],
      "stateMutability": "nonpayable",
      "type": "function"
    },
    {
      "inputs": [
        {
          "internalType": "uint256",
          "name": "index",
          "type": "uint256"
        }
      ],
      "name": "tokenByIndex",
      "outputs": [
        {
          "internalType": "uint256",
          "name": "",
          "type": "uint256"
        }
      ],
      "stateMutability": "view",
      "type": "function"
    },
    {
      "inputs": [
        {
          "internalType": "address",
          "name": "owner",
          "type": "address"
        },
        {
          "internalType": "uint256",
          "name": "index",
          "type": "uint256"
        }
      ],
      "name": "tokenOfOwnerByIndex",
      "outputs": [
        {
          "internalType": "uint256",
          "name": "",
          "type": "uint256"
        }
      ],
      "stateMutability": "view",
      "type": "function"
    },
    {
      "inputs": [],
      "name": "tokenPrice",
      "outputs": [
        {
          "internalType": "uint256",
          "name": "",
          "type": "uint256"
        }
      ],
      "stateMutability": "view",
      "type": "function"
    },
    {
      "inputs": [
        {
          "internalType": "uint256",
          "name": "tokenId",
          "type": "uint256"
        }
      ],
      "name": "tokenURI",
      "outputs": [
        {
          "internalType": "string",
          "name": "",
          "type": "string"
        }
      ],
      "stateMutability": "view",
      "type": "function"
    },
    {
      "inputs": [
        {
          "internalType": "address",
          "name": "_owner",
          "type": "address"
        }
      ],
      "name": "tokensOfOwner",
      "outputs": [
        {
          "internalType": "uint256[]",
          "name": "",
          "type": "uint256[]"
        }
      ],
      "stateMutability": "view",
      "type": "function"
    },
    {
      "inputs": [],
      "name": "totalSupply",
      "outputs": [
        {
          "internalType": "uint256",
          "name": "",
          "type": "uint256"
        }
      ],
      "stateMutability": "view",
      "type": "function"
    },
    {
      "inputs": [
        {
          "internalType": "address",
          "name": "from",
          "type": "address"
        },
        {
          "internalType": "address",
          "name": "to",
          "type": "address"
        },
        {
          "internalType": "uint256",
          "name": "tokenId",
          "type": "uint256"
        }
      ],
      "name": "transferFrom",
      "outputs": [],
      "stateMutability": "nonpayable",
      "type": "function"
    },
    {
      "inputs": [
        {
          "internalType": "address",
          "name": "newOwner",
          "type": "address"
        }
      ],
      "name": "transferOwnership",
      "outputs": [],
      "stateMutability": "nonpayable",
      "type": "function"
    },
    {
      "inputs": [],
      "name": "withdraw",
      "outputs": [],
      "stateMutability": "payable",
      "type": "function"
    }
  ],
  "bytecode": "0x608060405260405180602001604052806000815250600b90805190602001906200002b92919062000229565b506000600c60006101000a81548160ff0219169083151502179055506000600c60016101000a81548160ff0219169083151502179055506000600c60026101000a81548160ff0219169083151502179055506002600f5560406010553480156200009457600080fd5b506040518060400160405280600a81526020017f4d61706c654661636573000000000000000000000000000000000000000000008152506040518060400160405280600381526020017f4d4653000000000000000000000000000000000000000000000000000000000081525081600090805190602001906200011992919062000229565b5080600190805190602001906200013292919062000229565b50505062000155620001496200015b60201b60201c565b6200016360201b60201c565b6200033e565b600033905090565b6000600660009054906101000a900473ffffffffffffffffffffffffffffffffffffffff16905081600660006101000a81548173ffffffffffffffffffffffffffffffffffffffff021916908373ffffffffffffffffffffffffffffffffffffffff1602179055508173ffffffffffffffffffffffffffffffffffffffff168173ffffffffffffffffffffffffffffffffffffffff167f8be0079c531659141344cd1fd0a4f28419497f9722a3daafe3b4186f6b6457e060405160405180910390a35050565b8280546200023790620002d9565b90600052602060002090601f0160209004810192826200025b5760008555620002a7565b82601f106200027657805160ff1916838001178555620002a7565b82800160010185558215620002a7579182015b82811115620002a657825182559160200191906001019062000289565b5b509050620002b69190620002ba565b5090565b5b80821115620002d5576000816000905550600101620002bb565b5090565b60006002820490506001821680620002f257607f821691505b602082108114156200030957620003086200030f565b5b50919050565b7f4e487b7100000000000000000000000000000000000000000000000000000000600052602260045260246000fd5b615409806200034e6000396000f3fe6080604052600436106102465760003560e01c806378cf19e911610139578063b88d4fde116100b6578063e985e9c51161007a578063e985e9c51461083f578063eb8d24441461087c578063f285e69e146108a7578063f2fde38b146108be578063f47c84c5146108e7578063fcd2a4271461091257610246565b8063b88d4fde1461077d578063bf6bd9ea146107a6578063c87b56dd146107c2578063daaeec86146107ff578063df4305d21461081657610246565b8063946ef42a116100fd578063946ef42a146106be57806395d89b41146106e9578063a22cb46514610714578063a475b5dd1461073d578063b179e0601461075457610246565b806378cf19e9146105e65780637ff9b5961461060f5780638462151c1461063a5780638caa6bcd146106775780638da5cb5b1461069357610246565b80633ccfd60b116101c75780636352211e1161018b5780636352211e146105015780636c0360eb1461053e57806370a0823114610569578063715018a6146105a65780637204a3c9146105bd57610246565b80633ccfd60b1461043d57806342842e0e146104475780634f6ccce71461047057806354214f69146104ad57806355f804b3146104d857610246565b806311576b791161020e57806311576b791461034457806318160ddd1461038157806323b872dd146103ac5780632f745c59146103d557806330f72cd41461041257610246565b806301ffc9a71461024b57806306fdde0314610288578063081812fc146102b3578063095ea7b3146102f057806309aa3dcf14610319575b600080fd5b34801561025757600080fd5b50610272600480360381019061026d9190613bfa565b61093d565b60405161027f9190614315565b60405180910390f35b34801561029457600080fd5b5061029d61094f565b6040516102aa9190614330565b60405180910390f35b3480156102bf57600080fd5b506102da60048036038101906102d59190613c8d565b6109e1565b6040516102e7919061428c565b60405180910390f35b3480156102fc57600080fd5b5061031760048036038101906103129190613b79565b610a66565b005b34801561032557600080fd5b5061032e610b7e565b60405161033b91906146f2565b60405180910390f35b34801561035057600080fd5b5061036b60048036038101906103669190613a0e565b610b83565b6040516103789190614315565b60405180910390f35b34801561038d57600080fd5b50610396610bd9565b6040516103a391906146f2565b60405180910390f35b3480156103b857600080fd5b506103d360048036038101906103ce9190613a73565b610be6565b005b3480156103e157600080fd5b506103fc60048036038101906103f79190613b79565b610c46565b60405161040991906146f2565b60405180910390f35b34801561041e57600080fd5b50610427610ceb565b6040516104349190614315565b60405180910390f35b610445610cfe565b005b34801561045357600080fd5b5061046e60048036038101906104699190613a73565b610dfa565b005b34801561047c57600080fd5b5061049760048036038101906104929190613c8d565b610e1a565b6040516104a491906146f2565b60405180910390f35b3480156104b957600080fd5b506104c2610eb1565b6040516104cf9190614315565b60405180910390f35b3480156104e457600080fd5b506104ff60048036038101906104fa9190613c4c565b610ec4565b005b34801561050d57600080fd5b5061052860048036038101906105239190613c8d565b610f5a565b604051610535919061428c565b60405180910390f35b34801561054a57600080fd5b5061055361100c565b6040516105609190614330565b60405180910390f35b34801561057557600080fd5b50610590600480360381019061058b9190613a0e565b61109a565b60405161059d91906146f2565b60405180910390f35b3480156105b257600080fd5b506105bb611152565b005b3480156105c957600080fd5b506105e460048036038101906105df9190613bb5565b6111da565b005b3480156105f257600080fd5b5061060d60048036038101906106089190613b79565b6113de565b005b34801561061b57600080fd5b50610624611500565b60405161063191906146f2565b60405180910390f35b34801561064657600080fd5b50610661600480360381019061065c9190613a0e565b61150b565b60405161066e91906142f3565b60405180910390f35b610691600480360381019061068c9190613c8d565b611687565b005b34801561069f57600080fd5b506106a86119ef565b6040516106b5919061428c565b60405180910390f35b3480156106ca57600080fd5b506106d3611a19565b6040516106e091906146f2565b60405180910390f35b3480156106f557600080fd5b506106fe611a1f565b60405161070b9190614330565b60405180910390f35b34801561072057600080fd5b5061073b60048036038101906107369190613b3d565b611ab1565b005b34801561074957600080fd5b50610752611ac7565b005b34801561076057600080fd5b5061077b60048036038101906107769190613bb5565b611b60565b005b34801561078957600080fd5b506107a4600480360381019061079f9190613ac2565b611d64565b005b6107c060048036038101906107bb9190613c8d565b611dc6565b005b3480156107ce57600080fd5b506107e960048036038101906107e49190613c8d565b611fb4565b6040516107f69190614330565b60405180910390f35b34801561080b57600080fd5b50610814612099565b005b34801561082257600080fd5b5061083d60048036038101906108389190613c8d565b612141565b005b34801561084b57600080fd5b5061086660048036038101906108619190613a37565b6121c7565b6040516108739190614315565b60405180910390f35b34801561088857600080fd5b5061089161225b565b60405161089e9190614315565b60405180910390f35b3480156108b357600080fd5b506108bc61226e565b005b3480156108ca57600080fd5b506108e560048036038101906108e09190613a0e565b612316565b005b3480156108f357600080fd5b506108fc61240e565b60405161090991906146f2565b60405180910390f35b34801561091e57600080fd5b50610927612413565b60405161093491906146f2565b60405180910390f35b600061094882612419565b9050919050565b60606000805461095e90614a0f565b80601f016020809104026020016040519081016040528092919081815260200182805461098a90614a0f565b80156109d75780601f106109ac576101008083540402835291602001916109d7565b820191906000526020600020905b8154815290600101906020018083116109ba57829003601f168201915b5050505050905090565b60006109ec82612493565b610a2b576040517f08c379a0000000000000000000000000000000000000000000000000000000008152600401610a2290614572565b60405180910390fd5b6004600083815260200190815260200160002060009054906101000a900473ffffffffffffffffffffffffffffffffffffffff169050919050565b6000610a7182610f5a565b90508073ffffffffffffffffffffffffffffffffffffffff168373ffffffffffffffffffffffffffffffffffffffff161415610ae2576040517f08c379a0000000000000000000000000000000000000000000000000000000008152600401610ad990614632565b60405180910390fd5b8073ffffffffffffffffffffffffffffffffffffffff16610b016124ff565b73ffffffffffffffffffffffffffffffffffffffff161480610b305750610b2f81610b2a6124ff565b6121c7565b5b610b6f576040517f08c379a0000000000000000000000000000000000000000000000000000000008152600401610b66906144d2565b60405180910390fd5b610b798383612507565b505050565b600581565b6000600d60008373ffffffffffffffffffffffffffffffffffffffff1673ffffffffffffffffffffffffffffffffffffffff16815260200190815260200160002060009054906101000a900460ff169050919050565b6000600980549050905090565b610bf7610bf16124ff565b826125c0565b610c36576040517f08c379a0000000000000000000000000000000000000000000000000000000008152600401610c2d90614652565b60405180910390fd5b610c4183838361269e565b505050565b6000610c518361109a565b8210610c92576040517f08c379a0000000000000000000000000000000000000000000000000000000008152600401610c8990614372565b60405180910390fd5b600760008473ffffffffffffffffffffffffffffffffffffffff1673ffffffffffffffffffffffffffffffffffffffff168152602001908152602001600020600083815260200190815260200160002054905092915050565b600c60019054906101000a900460ff1681565b610d066124ff565b73ffffffffffffffffffffffffffffffffffffffff16610d246119ef565b73ffffffffffffffffffffffffffffffffffffffff1614610d7a576040517f08c379a0000000000000000000000000000000000000000000000000000000008152600401610d7190614592565b60405180910390fd5b6000610d846119ef565b73ffffffffffffffffffffffffffffffffffffffff1647604051610da790614277565b60006040518083038185875af1925050503d8060008114610de4576040519150601f19603f3d011682016040523d82523d6000602084013e610de9565b606091505b5050905080610df757600080fd5b50565b610e1583838360405180602001604052806000815250611d64565b505050565b6000610e24610bd9565b8210610e65576040517f08c379a0000000000000000000000000000000000000000000000000000000008152600401610e5c90614672565b60405180910390fd5b60098281548110610e9f577f4e487b7100000000000000000000000000000000000000000000000000000000600052603260045260246000fd5b90600052602060002001549050919050565b600c60029054906101000a900460ff1681565b610ecc6124ff565b73ffffffffffffffffffffffffffffffffffffffff16610eea6119ef565b73ffffffffffffffffffffffffffffffffffffffff1614610f40576040517f08c379a0000000000000000000000000000000000000000000000000000000008152600401610f3790614592565b60405180910390fd5b80600b9080519060200190610f569291906137e8565b5050565b6000806002600084815260200190815260200160002060009054906101000a900473ffffffffffffffffffffffffffffffffffffffff169050600073ffffffffffffffffffffffffffffffffffffffff168173ffffffffffffffffffffffffffffffffffffffff161415611003576040517f08c379a0000000000000000000000000000000000000000000000000000000008152600401610ffa90614512565b60405180910390fd5b80915050919050565b600b805461101990614a0f565b80601f016020809104026020016040519081016040528092919081815260200182805461104590614a0f565b80156110925780601f1061106757610100808354040283529160200191611092565b820191906000526020600020905b81548152906001019060200180831161107557829003601f168201915b505050505081565b60008073ffffffffffffffffffffffffffffffffffffffff168273ffffffffffffffffffffffffffffffffffffffff16141561110b576040517f08c379a0000000000000000000000000000000000000000000000000000000008152600401611102906144f2565b60405180910390fd5b600360008373ffffffffffffffffffffffffffffffffffffffff1673ffffffffffffffffffffffffffffffffffffffff168152602001908152602001600020549050919050565b61115a6124ff565b73ffffffffffffffffffffffffffffffffffffffff166111786119ef565b73ffffffffffffffffffffffffffffffffffffffff16146111ce576040517f08c379a00000000000000000000000000000000000000000000000000000000081526004016111c590614592565b60405180910390fd5b6111d860006128fa565b565b6111e26124ff565b73ffffffffffffffffffffffffffffffffffffffff166112006119ef565b73ffffffffffffffffffffffffffffffffffffffff1614611256576040517f08c379a000000000000000000000000000000000000000000000000000000000815260040161124d90614592565b60405180910390fd5b60005b828290508110156113d957600073ffffffffffffffffffffffffffffffffffffffff168383838181106112b5577f4e487b7100000000000000000000000000000000000000000000000000000000600052603260045260246000fd5b90506020020160208101906112ca9190613a0e565b73ffffffffffffffffffffffffffffffffffffffff161415611321576040517f08c379a0000000000000000000000000000000000000000000000000000000008152600401611318906145b2565b60405180910390fd5b6001600d6000858585818110611360577f4e487b7100000000000000000000000000000000000000000000000000000000600052603260045260246000fd5b90506020020160208101906113759190613a0e565b73ffffffffffffffffffffffffffffffffffffffff1673ffffffffffffffffffffffffffffffffffffffff16815260200190815260200160002060006101000a81548160ff02191690831515021790555080806113d190614a72565b915050611259565b505050565b6113e66124ff565b73ffffffffffffffffffffffffffffffffffffffff166114046119ef565b73ffffffffffffffffffffffffffffffffffffffff161461145a576040517f08c379a000000000000000000000000000000000000000000000000000000000815260040161145190614592565b60405180910390fd5b60008111801561146c57506010548111155b6114ab576040517f08c379a00000000000000000000000000000000000000000000000000000000081526004016114a290614432565b60405180910390fd5b60005b818110156114e05760006114c0610bd9565b90506114cc84826129c0565b5080806114d890614a72565b9150506114ae565b506114f6816010546129de90919063ffffffff16565b6010819055505050565b6606c00a3912c00081565b606060006115188361109a565b9050600081141561159b57600067ffffffffffffffff811115611564577f4e487b7100000000000000000000000000000000000000000000000000000000600052604160045260246000fd5b6040519080825280602002602001820160405280156115925781602001602082028036833780820191505090505b50915050611682565b60008167ffffffffffffffff8111156115dd577f4e487b7100000000000000000000000000000000000000000000000000000000600052604160045260246000fd5b60405190808252806020026020018201604052801561160b5781602001602082028036833780820191505090505b50905060005b8281101561167b576116238582610c46565b82828151811061165c577f4e487b7100000000000000000000000000000000000000000000000000000000600052603260045260246000fd5b602002602001018181525050808061167390614a72565b915050611611565b8193505050505b919050565b600c60019054906101000a900460ff166116d6576040517f08c379a00000000000000000000000000000000000000000000000000000000081526004016116cd90614692565b60405180910390fd5b600d60003373ffffffffffffffffffffffffffffffffffffffff1673ffffffffffffffffffffffffffffffffffffffff16815260200190815260200160002060009054906101000a900460ff16611762576040517f08c379a0000000000000000000000000000000000000000000000000000000008152600401611759906143f2565b60405180910390fd5b601961177e82611770610bd9565b6129f490919063ffffffff16565b11156117bf576040517f08c379a00000000000000000000000000000000000000000000000000000000081526004016117b6906145d2565b60405180910390fd5b6000811180156117d15750600f548111155b611810576040517f08c379a0000000000000000000000000000000000000000000000000000000008152600401611807906146d2565b60405180910390fd5b600f5461186582600e60003373ffffffffffffffffffffffffffffffffffffffff1673ffffffffffffffffffffffffffffffffffffffff168152602001908152602001600020546129f490919063ffffffff16565b11156118a6576040517f08c379a000000000000000000000000000000000000000000000000000000000815260040161189d906146b2565b60405180910390fd5b6118c0816606c00a3912c000612a0a90919063ffffffff16565b341015611902576040517f08c379a00000000000000000000000000000000000000000000000000000000081526004016118f990614492565b60405180910390fd5b60005b818110156119eb57600061192a600161191c610bd9565b6129f490919063ffffffff16565b90506019611936610bd9565b10156119d7576001600e60003373ffffffffffffffffffffffffffffffffffffffff1673ffffffffffffffffffffffffffffffffffffffff168152602001908152602001600020600082825461198c9190614844565b9250508190555061199d33826129c0565b7f7853d1461ac86ac48ba5b6be5e468cb642eeba574b7b287ae5e6e5174dd2b4f181336040516119ce92919061470d565b60405180910390a15b5080806119e390614a72565b915050611905565b5050565b6000600660009054906101000a900473ffffffffffffffffffffffffffffffffffffffff16905090565b600f5481565b606060018054611a2e90614a0f565b80601f0160208091040260200160405190810160405280929190818152602001828054611a5a90614a0f565b8015611aa75780601f10611a7c57610100808354040283529160200191611aa7565b820191906000526020600020905b815481529060010190602001808311611a8a57829003601f168201915b5050505050905090565b611ac3611abc6124ff565b8383612a20565b5050565b611acf6124ff565b73ffffffffffffffffffffffffffffffffffffffff16611aed6119ef565b73ffffffffffffffffffffffffffffffffffffffff1614611b43576040517f08c379a0000000000000000000000000000000000000000000000000000000008152600401611b3a90614592565b60405180910390fd5b6001600c60026101000a81548160ff021916908315150217905550565b611b686124ff565b73ffffffffffffffffffffffffffffffffffffffff16611b866119ef565b73ffffffffffffffffffffffffffffffffffffffff1614611bdc576040517f08c379a0000000000000000000000000000000000000000000000000000000008152600401611bd390614592565b60405180910390fd5b60005b82829050811015611d5f57600073ffffffffffffffffffffffffffffffffffffffff16838383818110611c3b577f4e487b7100000000000000000000000000000000000000000000000000000000600052603260045260246000fd5b9050602002016020810190611c509190613a0e565b73ffffffffffffffffffffffffffffffffffffffff161415611ca7576040517f08c379a0000000000000000000000000000000000000000000000000000000008152600401611c9e906145b2565b60405180910390fd5b6000600d6000858585818110611ce6577f4e487b7100000000000000000000000000000000000000000000000000000000600052603260045260246000fd5b9050602002016020810190611cfb9190613a0e565b73ffffffffffffffffffffffffffffffffffffffff1673ffffffffffffffffffffffffffffffffffffffff16815260200190815260200160002060006101000a81548160ff0219169083151502179055508080611d5790614a72565b915050611bdf565b505050565b611d75611d6f6124ff565b836125c0565b611db4576040517f08c379a0000000000000000000000000000000000000000000000000000000008152600401611dab90614652565b60405180910390fd5b611dc084848484612b8d565b50505050565b600c60009054906101000a900460ff16611e15576040517f08c379a0000000000000000000000000000000000000000000000000000000008152600401611e0c90614412565b60405180910390fd5b600081118015611e26575060058111155b611e65576040517f08c379a0000000000000000000000000000000000000000000000000000000008152600401611e5c90614352565b60405180910390fd5b6019611e8182611e73610bd9565b6129f490919063ffffffff16565b1115611ec2576040517f08c379a0000000000000000000000000000000000000000000000000000000008152600401611eb990614532565b60405180910390fd5b611edc816606c00a3912c000612a0a90919063ffffffff16565b341015611f1e576040517f08c379a0000000000000000000000000000000000000000000000000000000008152600401611f1590614492565b60405180910390fd5b60005b81811015611fb0576000611f466001611f38610bd9565b6129f490919063ffffffff16565b90506019611f52610bd9565b1015611f9c57611f6233826129c0565b7f7853d1461ac86ac48ba5b6be5e468cb642eeba574b7b287ae5e6e5174dd2b4f18133604051611f9392919061470d565b60405180910390a15b508080611fa890614a72565b915050611f21565b5050565b6060611fbf82612493565b611ffe576040517f08c379a0000000000000000000000000000000000000000000000000000000008152600401611ff590614612565b60405180910390fd5b6000612008612be9565b905060001515600c60029054906101000a900460ff16151514156120475760405180608001604052806041815260200161539360419139915050612094565b60008151116120655760405180602001604052806000815250612090565b8061206f84612c7b565b604051602001612080929190614248565b6040516020818303038152906040525b9150505b919050565b6120a16124ff565b73ffffffffffffffffffffffffffffffffffffffff166120bf6119ef565b73ffffffffffffffffffffffffffffffffffffffff1614612115576040517f08c379a000000000000000000000000000000000000000000000000000000000815260040161210c90614592565b60405180910390fd5b600c60009054906101000a900460ff1615600c60006101000a81548160ff021916908315150217905550565b6121496124ff565b73ffffffffffffffffffffffffffffffffffffffff166121676119ef565b73ffffffffffffffffffffffffffffffffffffffff16146121bd576040517f08c379a00000000000000000000000000000000000000000000000000000000081526004016121b490614592565b60405180910390fd5b80600f8190555050565b6000600560008473ffffffffffffffffffffffffffffffffffffffff1673ffffffffffffffffffffffffffffffffffffffff16815260200190815260200160002060008373ffffffffffffffffffffffffffffffffffffffff1673ffffffffffffffffffffffffffffffffffffffff16815260200190815260200160002060009054906101000a900460ff16905092915050565b600c60009054906101000a900460ff1681565b6122766124ff565b73ffffffffffffffffffffffffffffffffffffffff166122946119ef565b73ffffffffffffffffffffffffffffffffffffffff16146122ea576040517f08c379a00000000000000000000000000000000000000000000000000000000081526004016122e190614592565b60405180910390fd5b600c60019054906101000a900460ff1615600c60016101000a81548160ff021916908315150217905550565b61231e6124ff565b73ffffffffffffffffffffffffffffffffffffffff1661233c6119ef565b73ffffffffffffffffffffffffffffffffffffffff1614612392576040517f08c379a000000000000000000000000000000000000000000000000000000000815260040161238990614592565b60405180910390fd5b600073ffffffffffffffffffffffffffffffffffffffff168173ffffffffffffffffffffffffffffffffffffffff161415612402576040517f08c379a00000000000000000000000000000000000000000000000000000000081526004016123f9906143b2565b60405180910390fd5b61240b816128fa565b50565b601981565b60105481565b60007f780e9d63000000000000000000000000000000000000000000000000000000007bffffffffffffffffffffffffffffffffffffffffffffffffffffffff1916827bffffffffffffffffffffffffffffffffffffffffffffffffffffffff1916148061248c575061248b82612e28565b5b9050919050565b60008073ffffffffffffffffffffffffffffffffffffffff166002600084815260200190815260200160002060009054906101000a900473ffffffffffffffffffffffffffffffffffffffff1673ffffffffffffffffffffffffffffffffffffffff1614159050919050565b600033905090565b816004600083815260200190815260200160002060006101000a81548173ffffffffffffffffffffffffffffffffffffffff021916908373ffffffffffffffffffffffffffffffffffffffff160217905550808273ffffffffffffffffffffffffffffffffffffffff1661257a83610f5a565b73ffffffffffffffffffffffffffffffffffffffff167f8c5be1e5ebec7d5bd14f71427d1e84f3dd0314c0f7b2291e5b200ac8c7c3b92560405160405180910390a45050565b60006125cb82612493565b61260a576040517f08c379a0000000000000000000000000000000000000000000000000000000008152600401612601906144b2565b60405180910390fd5b600061261583610f5a565b90508073ffffffffffffffffffffffffffffffffffffffff168473ffffffffffffffffffffffffffffffffffffffff16148061268457508373ffffffffffffffffffffffffffffffffffffffff1661266c846109e1565b73ffffffffffffffffffffffffffffffffffffffff16145b80612695575061269481856121c7565b5b91505092915050565b8273ffffffffffffffffffffffffffffffffffffffff166126be82610f5a565b73ffffffffffffffffffffffffffffffffffffffff1614612714576040517f08c379a000000000000000000000000000000000000000000000000000000000815260040161270b906145f2565b60405180910390fd5b600073ffffffffffffffffffffffffffffffffffffffff168273ffffffffffffffffffffffffffffffffffffffff161415612784576040517f08c379a000000000000000000000000000000000000000000000000000000000815260040161277b90614452565b60405180910390fd5b61278f838383612f0a565b61279a600082612507565b6001600360008573ffffffffffffffffffffffffffffffffffffffff1673ffffffffffffffffffffffffffffffffffffffff16815260200190815260200160002060008282546127ea9190614925565b925050819055506001600360008473ffffffffffffffffffffffffffffffffffffffff1673ffffffffffffffffffffffffffffffffffffffff16815260200190815260200160002060008282546128419190614844565b92505081905550816002600083815260200190815260200160002060006101000a81548173ffffffffffffffffffffffffffffffffffffffff021916908373ffffffffffffffffffffffffffffffffffffffff160217905550808273ffffffffffffffffffffffffffffffffffffffff168473ffffffffffffffffffffffffffffffffffffffff167fddf252ad1be2c89b69c2b068fc378daa952ba7f163c4a11628f55a4df523b3ef60405160405180910390a4505050565b6000600660009054906101000a900473ffffffffffffffffffffffffffffffffffffffff16905081600660006101000a81548173ffffffffffffffffffffffffffffffffffffffff021916908373ffffffffffffffffffffffffffffffffffffffff1602179055508173ffffffffffffffffffffffffffffffffffffffff168173ffffffffffffffffffffffffffffffffffffffff167f8be0079c531659141344cd1fd0a4f28419497f9722a3daafe3b4186f6b6457e060405160405180910390a35050565b6129da828260405180602001604052806000815250612f1a565b5050565b600081836129ec9190614925565b905092915050565b60008183612a029190614844565b905092915050565b60008183612a1891906148cb565b905092915050565b8173ffffffffffffffffffffffffffffffffffffffff168373ffffffffffffffffffffffffffffffffffffffff161415612a8f576040517f08c379a0000000000000000000000000000000000000000000000000000000008152600401612a8690614472565b60405180910390fd5b80600560008573ffffffffffffffffffffffffffffffffffffffff1673ffffffffffffffffffffffffffffffffffffffff16815260200190815260200160002060008473ffffffffffffffffffffffffffffffffffffffff1673ffffffffffffffffffffffffffffffffffffffff16815260200190815260200160002060006101000a81548160ff0219169083151502179055508173ffffffffffffffffffffffffffffffffffffffff168373ffffffffffffffffffffffffffffffffffffffff167f17307eab39ab6107e8899845ad3d59bd9653f200f220920489ca2b5937696c3183604051612b809190614315565b60405180910390a3505050565b612b9884848461269e565b612ba484848484612f75565b612be3576040517f08c379a0000000000000000000000000000000000000000000000000000000008152600401612bda90614392565b60405180910390fd5b50505050565b6060600b8054612bf890614a0f565b80601f0160208091040260200160405190810160405280929190818152602001828054612c2490614a0f565b8015612c715780601f10612c4657610100808354040283529160200191612c71565b820191906000526020600020905b815481529060010190602001808311612c5457829003601f168201915b5050505050905090565b60606000821415612cc3576040518060400160405280600181526020017f30000000000000000000000000000000000000000000000000000000000000008152509050612e23565b600082905060005b60008214612cf5578080612cde90614a72565b915050600a82612cee919061489a565b9150612ccb565b60008167ffffffffffffffff811115612d37577f4e487b7100000000000000000000000000000000000000000000000000000000600052604160045260246000fd5b6040519080825280601f01601f191660200182016040528015612d695781602001600182028036833780820191505090505b5090505b60008514612e1c57600182612d829190614925565b9150600a85612d919190614abb565b6030612d9d9190614844565b60f81b818381518110612dd9577f4e487b7100000000000000000000000000000000000000000000000000000000600052603260045260246000fd5b60200101907effffffffffffffffffffffffffffffffffffffffffffffffffffffffffffff1916908160001a905350600a85612e15919061489a565b9450612d6d565b8093505050505b919050565b60007f80ac58cd000000000000000000000000000000000000000000000000000000007bffffffffffffffffffffffffffffffffffffffffffffffffffffffff1916827bffffffffffffffffffffffffffffffffffffffffffffffffffffffff19161480612ef357507f5b5e139f000000000000000000000000000000000000000000000000000000007bffffffffffffffffffffffffffffffffffffffffffffffffffffffff1916827bffffffffffffffffffffffffffffffffffffffffffffffffffffffff1916145b80612f035750612f028261310c565b5b9050919050565b612f15838383613176565b505050565b612f24838361328a565b612f316000848484612f75565b612f70576040517f08c379a0000000000000000000000000000000000000000000000000000000008152600401612f6790614392565b60405180910390fd5b505050565b6000612f968473ffffffffffffffffffffffffffffffffffffffff16613458565b156130ff578373ffffffffffffffffffffffffffffffffffffffff1663150b7a02612fbf6124ff565b8786866040518563ffffffff1660e01b8152600401612fe194939291906142a7565b602060405180830381600087803b158015612ffb57600080fd5b505af192505050801561302c57506040513d601f19601f820116820180604052508101906130299190613c23565b60015b6130af573d806000811461305c576040519150601f19603f3d011682016040523d82523d6000602084013e613061565b606091505b506000815114156130a7576040517f08c379a000000000000000000000000000000000000000000000000000000000815260040161309e90614392565b60405180910390fd5b805181602001fd5b63150b7a0260e01b7bffffffffffffffffffffffffffffffffffffffffffffffffffffffff1916817bffffffffffffffffffffffffffffffffffffffffffffffffffffffff191614915050613104565b600190505b949350505050565b60007f01ffc9a7000000000000000000000000000000000000000000000000000000007bffffffffffffffffffffffffffffffffffffffffffffffffffffffff1916827bffffffffffffffffffffffffffffffffffffffffffffffffffffffff1916149050919050565b61318183838361346b565b600073ffffffffffffffffffffffffffffffffffffffff168373ffffffffffffffffffffffffffffffffffffffff1614156131c4576131bf81613470565b613203565b8173ffffffffffffffffffffffffffffffffffffffff168373ffffffffffffffffffffffffffffffffffffffff16146132025761320183826134b9565b5b5b600073ffffffffffffffffffffffffffffffffffffffff168273ffffffffffffffffffffffffffffffffffffffff1614156132465761324181613626565b613285565b8273ffffffffffffffffffffffffffffffffffffffff168273ffffffffffffffffffffffffffffffffffffffff1614613284576132838282613769565b5b5b505050565b600073ffffffffffffffffffffffffffffffffffffffff168273ffffffffffffffffffffffffffffffffffffffff1614156132fa576040517f08c379a00000000000000000000000000000000000000000000000000000000081526004016132f190614552565b60405180910390fd5b61330381612493565b15613343576040517f08c379a000000000000000000000000000000000000000000000000000000000815260040161333a906143d2565b60405180910390fd5b61334f60008383612f0a565b6001600360008473ffffffffffffffffffffffffffffffffffffffff1673ffffffffffffffffffffffffffffffffffffffff168152602001908152602001600020600082825461339f9190614844565b92505081905550816002600083815260200190815260200160002060006101000a81548173ffffffffffffffffffffffffffffffffffffffff021916908373ffffffffffffffffffffffffffffffffffffffff160217905550808273ffffffffffffffffffffffffffffffffffffffff16600073ffffffffffffffffffffffffffffffffffffffff167fddf252ad1be2c89b69c2b068fc378daa952ba7f163c4a11628f55a4df523b3ef60405160405180910390a45050565b600080823b905060008111915050919050565b505050565b600980549050600a600083815260200190815260200160002081905550600981908060018154018082558091505060019003906000526020600020016000909190919091505550565b600060016134c68461109a565b6134d09190614925565b90506000600860008481526020019081526020016000205490508181146135b5576000600760008673ffffffffffffffffffffffffffffffffffffffff1673ffffffffffffffffffffffffffffffffffffffff168152602001908152602001600020600084815260200190815260200160002054905080600760008773ffffffffffffffffffffffffffffffffffffffff1673ffffffffffffffffffffffffffffffffffffffff168152602001908152602001600020600084815260200190815260200160002081905550816008600083815260200190815260200160002081905550505b6008600084815260200190815260200160002060009055600760008573ffffffffffffffffffffffffffffffffffffffff1673ffffffffffffffffffffffffffffffffffffffff16815260200190815260200160002060008381526020019081526020016000206000905550505050565b6000600160098054905061363a9190614925565b90506000600a6000848152602001908152602001600020549050600060098381548110613690577f4e487b7100000000000000000000000000000000000000000000000000000000600052603260045260246000fd5b9060005260206000200154905080600983815481106136d8577f4e487b7100000000000000000000000000000000000000000000000000000000600052603260045260246000fd5b906000526020600020018190555081600a600083815260200190815260200160002081905550600a600085815260200190815260200160002060009055600980548061374d577f4e487b7100000000000000000000000000000000000000000000000000000000600052603160045260246000fd5b6001900381819060005260206000200160009055905550505050565b60006137748361109a565b905081600760008573ffffffffffffffffffffffffffffffffffffffff1673ffffffffffffffffffffffffffffffffffffffff168152602001908152602001600020600083815260200190815260200160002081905550806008600084815260200190815260200160002081905550505050565b8280546137f490614a0f565b90600052602060002090601f016020900481019282613816576000855561385d565b82601f1061382f57805160ff191683800117855561385d565b8280016001018555821561385d579182015b8281111561385c578251825591602001919060010190613841565b5b50905061386a919061386e565b5090565b5b8082111561388757600081600090555060010161386f565b5090565b600061389e6138998461475b565b614736565b9050828152602081018484840111156138b657600080fd5b6138c18482856149cd565b509392505050565b60006138dc6138d78461478c565b614736565b9050828152602081018484840111156138f457600080fd5b6138ff8482856149cd565b509392505050565b60008135905061391681615336565b92915050565b60008083601f84011261392e57600080fd5b8235905067ffffffffffffffff81111561394757600080fd5b60208301915083602082028301111561395f57600080fd5b9250929050565b6000813590506139758161534d565b92915050565b60008135905061398a81615364565b92915050565b60008151905061399f81615364565b92915050565b600082601f8301126139b657600080fd5b81356139c684826020860161388b565b91505092915050565b600082601f8301126139e057600080fd5b81356139f08482602086016138c9565b91505092915050565b600081359050613a088161537b565b92915050565b600060208284031215613a2057600080fd5b6000613a2e84828501613907565b91505092915050565b60008060408385031215613a4a57600080fd5b6000613a5885828601613907565b9250506020613a6985828601613907565b9150509250929050565b600080600060608486031215613a8857600080fd5b6000613a9686828701613907565b9350506020613aa786828701613907565b9250506040613ab8868287016139f9565b9150509250925092565b60008060008060808587031215613ad857600080fd5b6000613ae687828801613907565b9450506020613af787828801613907565b9350506040613b08878288016139f9565b925050606085013567ffffffffffffffff811115613b2557600080fd5b613b31878288016139a5565b91505092959194509250565b60008060408385031215613b5057600080fd5b6000613b5e85828601613907565b9250506020613b6f85828601613966565b9150509250929050565b60008060408385031215613b8c57600080fd5b6000613b9a85828601613907565b9250506020613bab858286016139f9565b9150509250929050565b60008060208385031215613bc857600080fd5b600083013567ffffffffffffffff811115613be257600080fd5b613bee8582860161391c565b92509250509250929050565b600060208284031215613c0c57600080fd5b6000613c1a8482850161397b565b91505092915050565b600060208284031215613c3557600080fd5b6000613c4384828501613990565b91505092915050565b600060208284031215613c5e57600080fd5b600082013567ffffffffffffffff811115613c7857600080fd5b613c84848285016139cf565b91505092915050565b600060208284031215613c9f57600080fd5b6000613cad848285016139f9565b91505092915050565b6000613cc2838361422a565b60208301905092915050565b613cd781614959565b82525050565b6000613ce8826147cd565b613cf281856147fb565b9350613cfd836147bd565b8060005b83811015613d2e578151613d158882613cb6565b9750613d20836147ee565b925050600181019050613d01565b5085935050505092915050565b613d448161496b565b82525050565b6000613d55826147d8565b613d5f818561480c565b9350613d6f8185602086016149dc565b613d7881614ba8565b840191505092915050565b6000613d8e826147e3565b613d988185614828565b9350613da88185602086016149dc565b613db181614ba8565b840191505092915050565b6000613dc7826147e3565b613dd18185614839565b9350613de18185602086016149dc565b80840191505092915050565b6000613dfa602a83614828565b9150613e0582614bb9565b604082019050919050565b6000613e1d602b83614828565b9150613e2882614c08565b604082019050919050565b6000613e40603283614828565b9150613e4b82614c57565b604082019050919050565b6000613e63602683614828565b9150613e6e82614ca6565b604082019050919050565b6000613e86601c83614828565b9150613e9182614cf5565b602082019050919050565b6000613ea9601f83614828565b9150613eb482614d1e565b602082019050919050565b6000613ecc602183614828565b9150613ed782614d47565b604082019050919050565b6000613eef602083614828565b9150613efa82614d96565b602082019050919050565b6000613f12602483614828565b9150613f1d82614dbf565b604082019050919050565b6000613f35601983614828565b9150613f4082614e0e565b602082019050919050565b6000613f58601f83614828565b9150613f6382614e37565b602082019050919050565b6000613f7b602c83614828565b9150613f8682614e60565b604082019050919050565b6000613f9e603883614828565b9150613fa982614eaf565b604082019050919050565b6000613fc1602a83614828565b9150613fcc82614efe565b604082019050919050565b6000613fe4602983614828565b9150613fef82614f4d565b604082019050919050565b6000614007602a83614828565b915061401282614f9c565b604082019050919050565b600061402a602083614828565b915061403582614feb565b602082019050919050565b600061404d602c83614828565b915061405882615014565b604082019050919050565b6000614070600583614839565b915061407b82615063565b600582019050919050565b6000614093602083614828565b915061409e8261508c565b602082019050919050565b60006140b6601a83614828565b91506140c1826150b5565b602082019050919050565b60006140d9602983614828565b91506140e4826150de565b604082019050919050565b60006140fc602983614828565b91506141078261512d565b604082019050919050565b600061411f602f83614828565b915061412a8261517c565b604082019050919050565b6000614142602183614828565b915061414d826151cb565b604082019050919050565b600061416560008361481d565b91506141708261521a565b600082019050919050565b6000614188603183614828565b91506141938261521d565b604082019050919050565b60006141ab602c83614828565b91506141b68261526c565b604082019050919050565b60006141ce601583614828565b91506141d9826152bb565b602082019050919050565b60006141f1601c83614828565b91506141fc826152e4565b602082019050919050565b6000614214602083614828565b915061421f8261530d565b602082019050919050565b614233816149c3565b82525050565b614242816149c3565b82525050565b60006142548285613dbc565b91506142608284613dbc565b915061426b82614063565b91508190509392505050565b600061428282614158565b9150819050919050565b60006020820190506142a16000830184613cce565b92915050565b60006080820190506142bc6000830187613cce565b6142c96020830186613cce565b6142d66040830185614239565b81810360608301526142e88184613d4a565b905095945050505050565b6000602082019050818103600083015261430d8184613cdd565b905092915050565b600060208201905061432a6000830184613d3b565b92915050565b6000602082019050818103600083015261434a8184613d83565b905092915050565b6000602082019050818103600083015261436b81613ded565b9050919050565b6000602082019050818103600083015261438b81613e10565b9050919050565b600060208201905081810360008301526143ab81613e33565b9050919050565b600060208201905081810360008301526143cb81613e56565b9050919050565b600060208201905081810360008301526143eb81613e79565b9050919050565b6000602082019050818103600083015261440b81613e9c565b9050919050565b6000602082019050818103600083015261442b81613ebf565b9050919050565b6000602082019050818103600083015261444b81613ee2565b9050919050565b6000602082019050818103600083015261446b81613f05565b9050919050565b6000602082019050818103600083015261448b81613f28565b9050919050565b600060208201905081810360008301526144ab81613f4b565b9050919050565b600060208201905081810360008301526144cb81613f6e565b9050919050565b600060208201905081810360008301526144eb81613f91565b9050919050565b6000602082019050818103600083015261450b81613fb4565b9050919050565b6000602082019050818103600083015261452b81613fd7565b9050919050565b6000602082019050818103600083015261454b81613ffa565b9050919050565b6000602082019050818103600083015261456b8161401d565b9050919050565b6000602082019050818103600083015261458b81614040565b9050919050565b600060208201905081810360008301526145ab81614086565b9050919050565b600060208201905081810360008301526145cb816140a9565b9050919050565b600060208201905081810360008301526145eb816140cc565b9050919050565b6000602082019050818103600083015261460b816140ef565b9050919050565b6000602082019050818103600083015261462b81614112565b9050919050565b6000602082019050818103600083015261464b81614135565b9050919050565b6000602082019050818103600083015261466b8161417b565b9050919050565b6000602082019050818103600083015261468b8161419e565b9050919050565b600060208201905081810360008301526146ab816141c1565b9050919050565b600060208201905081810360008301526146cb816141e4565b9050919050565b600060208201905081810360008301526146eb81614207565b9050919050565b60006020820190506147076000830184614239565b92915050565b60006040820190506147226000830185614239565b61472f6020830184613cce565b9392505050565b6000614740614751565b905061474c8282614a41565b919050565b6000604051905090565b600067ffffffffffffffff82111561477657614775614b79565b5b61477f82614ba8565b9050602081019050919050565b600067ffffffffffffffff8211156147a7576147a6614b79565b5b6147b082614ba8565b9050602081019050919050565b6000819050602082019050919050565b600081519050919050565b600081519050919050565b600081519050919050565b6000602082019050919050565b600082825260208201905092915050565b600082825260208201905092915050565b600081905092915050565b600082825260208201905092915050565b600081905092915050565b600061484f826149c3565b915061485a836149c3565b9250827fffffffffffffffffffffffffffffffffffffffffffffffffffffffffffffffff0382111561488f5761488e614aec565b5b828201905092915050565b60006148a5826149c3565b91506148b0836149c3565b9250826148c0576148bf614b1b565b5b828204905092915050565b60006148d6826149c3565b91506148e1836149c3565b9250817fffffffffffffffffffffffffffffffffffffffffffffffffffffffffffffffff048311821515161561491a57614919614aec565b5b828202905092915050565b6000614930826149c3565b915061493b836149c3565b92508282101561494e5761494d614aec565b5b828203905092915050565b6000614964826149a3565b9050919050565b60008115159050919050565b60007fffffffff0000000000000000000000000000000000000000000000000000000082169050919050565b600073ffffffffffffffffffffffffffffffffffffffff82169050919050565b6000819050919050565b82818337600083830152505050565b60005b838110156149fa5780820151818401526020810190506149df565b83811115614a09576000848401525b50505050565b60006002820490506001821680614a2757607f821691505b60208210811415614a3b57614a3a614b4a565b5b50919050565b614a4a82614ba8565b810181811067ffffffffffffffff82111715614a6957614a68614b79565b5b80604052505050565b6000614a7d826149c3565b91507fffffffffffffffffffffffffffffffffffffffffffffffffffffffffffffffff821415614ab057614aaf614aec565b5b600182019050919050565b6000614ac6826149c3565b9150614ad1836149c3565b925082614ae157614ae0614b1b565b5b828206905092915050565b7f4e487b7100000000000000000000000000000000000000000000000000000000600052601160045260246000fd5b7f4e487b7100000000000000000000000000000000000000000000000000000000600052601260045260246000fd5b7f4e487b7100000000000000000000000000000000000000000000000000000000600052602260045260246000fd5b7f4e487b7100000000000000000000000000000000000000000000000000000000600052604160045260246000fd5b6000601f19601f8301169050919050565b7f43616e206f6e6c79206d696e74206f6e65206f72206d6f726520746f6b656e7360008201527f20617420612074696d6500000000000000000000000000000000000000000000602082015250565b7f455243373231456e756d657261626c653a206f776e657220696e646578206f7560008201527f74206f6620626f756e6473000000000000000000000000000000000000000000602082015250565b7f4552433732313a207472616e7366657220746f206e6f6e20455243373231526560008201527f63656976657220696d706c656d656e7465720000000000000000000000000000602082015250565b7f4f776e61626c653a206e6577206f776e657220697320746865207a65726f206160008201527f6464726573730000000000000000000000000000000000000000000000000000602082015250565b7f4552433732313a20746f6b656e20616c7265616479206d696e74656400000000600082015250565b7f596f7520617265206e6f74206f6e207468652050726573616c65204c69737400600082015250565b7f53616c65206d7573742062652061637469766520746f206d696e7420546f6b6560008201527f6e00000000000000000000000000000000000000000000000000000000000000602082015250565b7f4e6f7420656e6f7567682072657365727665206c65667420666f72207465616d600082015250565b7f4552433732313a207472616e7366657220746f20746865207a65726f2061646460008201527f7265737300000000000000000000000000000000000000000000000000000000602082015250565b7f4552433732313a20617070726f766520746f2063616c6c657200000000000000600082015250565b7f45746865722076616c75652073656e74206973206e6f7420636f727265637400600082015250565b7f4552433732313a206f70657261746f7220717565727920666f72206e6f6e657860008201527f697374656e7420746f6b656e0000000000000000000000000000000000000000602082015250565b7f4552433732313a20617070726f76652063616c6c6572206973206e6f74206f7760008201527f6e6572206e6f7220617070726f76656420666f7220616c6c0000000000000000602082015250565b7f4552433732313a2062616c616e636520717565727920666f7220746865207a6560008201527f726f206164647265737300000000000000000000000000000000000000000000602082015250565b7f4552433732313a206f776e657220717565727920666f72206e6f6e657869737460008201527f656e7420746f6b656e0000000000000000000000000000000000000000000000602082015250565b7f507572636861736520776f756c6420657863656564206d617820737570706c7960008201527f206f6620746f6b656e7300000000000000000000000000000000000000000000602082015250565b7f4552433732313a206d696e7420746f20746865207a65726f2061646472657373600082015250565b7f4552433732313a20617070726f76656420717565727920666f72206e6f6e657860008201527f697374656e7420746f6b656e0000000000000000000000000000000000000000602082015250565b7f2e6a736f6e000000000000000000000000000000000000000000000000000000600082015250565b7f4f776e61626c653a2063616c6c6572206973206e6f7420746865206f776e6572600082015250565b7f43616e27742061646420746865206e756c6c2061646472657373000000000000600082015250565b7f507572636861736520776f756c6420657863656564206d617820737570706c7960008201527f206f6620746f6b656e0000000000000000000000000000000000000000000000602082015250565b7f4552433732313a207472616e73666572206f6620746f6b656e2074686174206960008201527f73206e6f74206f776e0000000000000000000000000000000000000000000000602082015250565b7f4552433732314d657461646174613a2055524920717565727920666f72206e6f60008201527f6e6578697374656e7420746f6b656e0000000000000000000000000000000000602082015250565b7f4552433732313a20617070726f76616c20746f2063757272656e74206f776e6560008201527f7200000000000000000000000000000000000000000000000000000000000000602082015250565b50565b7f4552433732313a207472616e736665722063616c6c6572206973206e6f74206f60008201527f776e6572206e6f7220617070726f766564000000000000000000000000000000602082015250565b7f455243373231456e756d657261626c653a20676c6f62616c20696e646578206f60008201527f7574206f6620626f756e64730000000000000000000000000000000000000000602082015250565b7f50726573616c65206973206e6f74206163746976650000000000000000000000600082015250565b7f50757263686173652065786365656473206d617820616c6c6f77656400000000600082015250565b7f43616e6e6f742070757263686173652074686973206d616e7920746f6b656e73600082015250565b61533f81614959565b811461534a57600080fd5b50565b6153568161496b565b811461536157600080fd5b50565b61536d81614977565b811461537857600080fd5b50565b615384816149c3565b811461538f57600080fd5b5056fe697066733a2f2f516d6146383153484b53656a67703451743733566a503856726554626e69666b584d344c796152377067466f344d2f68696464656e2e6a736f6ea2646970667358221220b359c59cf171ce9254eb89a8b2fefb00f39e33f14290b9fff7bf230b1acd506a64736f6c63430008040033",
  "linkReferences": {},
  "deployedLinkReferences": {}
}